{
  "_format": "hh-sol-artifact-1",
  "contractName": "NftStaker",
  "sourceName": "contracts/NftStaker.sol",
  "abi": [
    {
      "inputs": [],
      "stateMutability": "nonpayable",
      "type": "constructor"
    },
    {
      "anonymous": false,
      "inputs": [
        {
          "indexed": false,
          "internalType": "address",
          "name": "owner",
          "type": "address"
        },
        {
          "indexed": false,
          "internalType": "uint256",
          "name": "amount",
          "type": "uint256"
        }
      ],
      "name": "Claimed",
      "type": "event"
    },
    {
      "anonymous": false,
      "inputs": [
        {
          "indexed": false,
          "internalType": "address",
          "name": "owner",
          "type": "address"
        },
        {
          "indexed": false,
          "internalType": "uint256",
          "name": "tokenId",
          "type": "uint256"
        },
        {
          "indexed": false,
          "internalType": "uint256",
          "name": "value",
          "type": "uint256"
        }
      ],
      "name": "NFTStaked",
      "type": "event"
    },
    {
      "anonymous": false,
      "inputs": [
        {
          "indexed": false,
          "internalType": "address",
          "name": "owner",
          "type": "address"
        },
        {
          "indexed": false,
          "internalType": "uint256",
          "name": "tokenId",
          "type": "uint256"
        },
        {
          "indexed": false,
          "internalType": "uint256",
          "name": "value",
          "type": "uint256"
        }
      ],
      "name": "NFTUnstaked",
      "type": "event"
    },
    {
      "inputs": [
        {
          "internalType": "address",
          "name": "",
          "type": "address"
        },
        {
          "internalType": "address",
          "name": "from",
          "type": "address"
        },
        {
          "internalType": "uint256",
          "name": "",
          "type": "uint256"
        },
        {
          "internalType": "bytes",
          "name": "",
          "type": "bytes"
        }
      ],
      "name": "onERC721Received",
      "outputs": [
        {
          "internalType": "bytes4",
          "name": "",
          "type": "bytes4"
        }
      ],
      "stateMutability": "pure",
      "type": "function"
    },
    {
      "inputs": [
        {
          "internalType": "uint256",
          "name": "tokenId",
          "type": "uint256"
        },
        {
          "internalType": "address",
          "name": "NftAddress",
          "type": "address"
        }
      ],
      "name": "stake",
      "outputs": [],
      "stateMutability": "nonpayable",
      "type": "function"
    },
    {
      "inputs": [],
      "name": "totalStaked",
      "outputs": [
        {
          "internalType": "uint256",
          "name": "",
          "type": "uint256"
        }
      ],
      "stateMutability": "view",
      "type": "function"
    },
    {
      "inputs": [
        {
          "internalType": "uint256",
          "name": "tokenId",
          "type": "uint256"
        }
      ],
      "name": "unstake",
      "outputs": [],
      "stateMutability": "nonpayable",
      "type": "function"
    },
    {
      "inputs": [
        {
          "internalType": "uint256",
          "name": "",
          "type": "uint256"
        }
      ],
      "name": "vault",
      "outputs": [
        {
          "internalType": "uint256",
          "name": "tokenId",
          "type": "uint256"
        },
        {
          "internalType": "uint256",
          "name": "timestamp",
          "type": "uint256"
        },
        {
          "internalType": "address",
          "name": "owner",
          "type": "address"
        },
        {
          "internalType": "address",
          "name": "parentNft",
          "type": "address"
        }
      ],
      "stateMutability": "view",
      "type": "function"
    }
  ],
  "bytecode": "0x608060405234801561001057600080fd5b50610d52806100206000396000f3fe608060405234801561001057600080fd5b50600436106100575760003560e01c8063150b7a021461005c5780632e17de781461008c5780637acb7757146100a8578063817b1cd2146100c457806381a36fb6146100e2575b600080fd5b61007660048036038101906100719190610810565b610115565b60405161008391906109f5565b60405180910390f35b6100a660048036038101906100a19190610898565b610198565b005b6100c260048036038101906100bd91906108c5565b6103f4565b005b6100cc6106d8565b6040516100d99190610a90565b60405180910390f35b6100fc60048036038101906100f79190610898565b6106de565b60405161010c9493929190610aab565b60405180910390f35b60008073ffffffffffffffffffffffffffffffffffffffff168573ffffffffffffffffffffffffffffffffffffffff1614610185576040517f08c379a000000000000000000000000000000000000000000000000000000000815260040161017c90610a50565b60405180910390fd5b63150b7a0260e01b905095945050505050565b6000808154809291906101aa90610b69565b919050555060006001600083815260200190815260200160002060405180608001604052908160008201548152602001600182015481526020016002820160009054906101000a900473ffffffffffffffffffffffffffffffffffffffff1673ffffffffffffffffffffffffffffffffffffffff1673ffffffffffffffffffffffffffffffffffffffff1681526020016003820160009054906101000a900473ffffffffffffffffffffffffffffffffffffffff1673ffffffffffffffffffffffffffffffffffffffff1673ffffffffffffffffffffffffffffffffffffffff168152505090506000816060015190503373ffffffffffffffffffffffffffffffffffffffff16826040015173ffffffffffffffffffffffffffffffffffffffff161461030c576040517f08c379a000000000000000000000000000000000000000000000000000000000815260040161030390610a30565b60405180910390fd5b6001600084815260200190815260200160002060008082016000905560018201600090556002820160006101000a81549073ffffffffffffffffffffffffffffffffffffffff02191690556003820160006101000a81549073ffffffffffffffffffffffffffffffffffffffff021916905550508073ffffffffffffffffffffffffffffffffffffffff166323b872dd3033866040518463ffffffff1660e01b81526004016103bd939291906109be565b600060405180830381600087803b1580156103d757600080fd5b505af11580156103eb573d6000803e3d6000fd5b50505050505050565b60008081548092919061040690610b93565b919050555060008190503373ffffffffffffffffffffffffffffffffffffffff168173ffffffffffffffffffffffffffffffffffffffff16636352211e856040518263ffffffff1660e01b81526004016104609190610a90565b60206040518083038186803b15801561047857600080fd5b505afa15801561048c573d6000803e3d6000fd5b505050506040513d601f19601f820116820180604052508101906104b091906107e3565b73ffffffffffffffffffffffffffffffffffffffff1614610506576040517f08c379a00000000000000000000000000000000000000000000000000000000081526004016104fd90610a10565b60405180910390fd5b600060016000858152602001908152602001600020600001541461055f576040517f08c379a000000000000000000000000000000000000000000000000000000000815260040161055690610a70565b60405180910390fd5b8073ffffffffffffffffffffffffffffffffffffffff166323b872dd3330866040518463ffffffff1660e01b815260040161059c939291906109be565b600060405180830381600087803b1580156105b657600080fd5b505af11580156105ca573d6000803e3d6000fd5b5050505060405180608001604052808481526020014281526020013373ffffffffffffffffffffffffffffffffffffffff1681526020018373ffffffffffffffffffffffffffffffffffffffff1681525060016000858152602001908152602001600020600082015181600001556020820151816001015560408201518160020160006101000a81548173ffffffffffffffffffffffffffffffffffffffff021916908373ffffffffffffffffffffffffffffffffffffffff16021790555060608201518160030160006101000a81548173ffffffffffffffffffffffffffffffffffffffff021916908373ffffffffffffffffffffffffffffffffffffffff160217905550905050505050565b60005481565b60016020528060005260406000206000915090508060000154908060010154908060020160009054906101000a900473ffffffffffffffffffffffffffffffffffffffff16908060030160009054906101000a900473ffffffffffffffffffffffffffffffffffffffff16905084565b60008135905061075d81610cee565b92915050565b60008151905061077281610cee565b92915050565b60008083601f84011261078e5761078d610c10565b5b8235905067ffffffffffffffff8111156107ab576107aa610c0b565b5b6020830191508360018202830111156107c7576107c6610c15565b5b9250929050565b6000813590506107dd81610d05565b92915050565b6000602082840312156107f9576107f8610c1f565b5b600061080784828501610763565b91505092915050565b60008060008060006080868803121561082c5761082b610c1f565b5b600061083a8882890161074e565b955050602061084b8882890161074e565b945050604061085c888289016107ce565b935050606086013567ffffffffffffffff81111561087d5761087c610c1a565b5b61088988828901610778565b92509250509295509295909350565b6000602082840312156108ae576108ad610c1f565b5b60006108bc848285016107ce565b91505092915050565b600080604083850312156108dc576108db610c1f565b5b60006108ea858286016107ce565b92505060206108fb8582860161074e565b9150509250929050565b61090e81610b01565b82525050565b61091d81610b13565b82525050565b6000610930600e83610af0565b915061093b82610c24565b602082019050919050565b6000610953600c83610af0565b915061095e82610c4d565b602082019050919050565b6000610976602283610af0565b915061098182610c76565b604082019050919050565b6000610999600e83610af0565b91506109a482610cc5565b602082019050919050565b6109b881610b5f565b82525050565b60006060820190506109d36000830186610905565b6109e06020830185610905565b6109ed60408301846109af565b949350505050565b6000602082019050610a0a6000830184610914565b92915050565b60006020820190508181036000830152610a2981610923565b9050919050565b60006020820190508181036000830152610a4981610946565b9050919050565b60006020820190508181036000830152610a6981610969565b9050919050565b60006020820190508181036000830152610a898161098c565b9050919050565b6000602082019050610aa560008301846109af565b92915050565b6000608082019050610ac060008301876109af565b610acd60208301866109af565b610ada6040830185610905565b610ae76060830184610905565b95945050505050565b600082825260208201905092915050565b6000610b0c82610b3f565b9050919050565b60007fffffffff0000000000000000000000000000000000000000000000000000000082169050919050565b600073ffffffffffffffffffffffffffffffffffffffff82169050919050565b6000819050919050565b6000610b7482610b5f565b91506000821415610b8857610b87610bdc565b5b600182039050919050565b6000610b9e82610b5f565b91507fffffffffffffffffffffffffffffffffffffffffffffffffffffffffffffffff821415610bd157610bd0610bdc565b5b600182019050919050565b7f4e487b7100000000000000000000000000000000000000000000000000000000600052601160045260246000fd5b600080fd5b600080fd5b600080fd5b600080fd5b600080fd5b7f6e6f7420796f757220746f6b656e000000000000000000000000000000000000600082015250565b7f6e6f7420616e206f776e65720000000000000000000000000000000000000000600082015250565b7f43616e6e6f742073656e64206e66747320746f205661756c742064697265637460008201527f6c79000000000000000000000000000000000000000000000000000000000000602082015250565b7f616c7265616479207374616b6564000000000000000000000000000000000000600082015250565b610cf781610b01565b8114610d0257600080fd5b50565b610d0e81610b5f565b8114610d1957600080fd5b5056fea2646970667358221220a1e978d0f42daf4445ceb62cfea4526e9375ab6f3b1d36c0383c33a23596226064736f6c63430008070033",
  "linkReferences": {},
  "deployedLinkReferences": {}
}