{
  "_format": "hh-sol-artifact-1",
  "contractName": "MuNFT",
  "sourceName": "contracts/MuNFT.sol",
  "abi": [
    {
      "inputs": [],
      "stateMutability": "nonpayable",
      "type": "constructor"
    },
    {
      "anonymous": false,
      "inputs": [
        {
          "indexed": true,
          "internalType": "address",
          "name": "owner",
          "type": "address"
        },
        {
          "indexed": true,
          "internalType": "address",
          "name": "approved",
          "type": "address"
        },
        {
          "indexed": true,
          "internalType": "uint256",
          "name": "tokenId",
          "type": "uint256"
        }
      ],
      "name": "Approval",
      "type": "event"
    },
    {
      "anonymous": false,
      "inputs": [
        {
          "indexed": true,
          "internalType": "address",
          "name": "owner",
          "type": "address"
        },
        {
          "indexed": true,
          "internalType": "address",
          "name": "operator",
          "type": "address"
        },
        {
          "indexed": false,
          "internalType": "bool",
          "name": "approved",
          "type": "bool"
        }
      ],
      "name": "ApprovalForAll",
      "type": "event"
    },
    {
      "anonymous": false,
      "inputs": [
        {
          "indexed": true,
          "internalType": "address",
          "name": "previousOwner",
          "type": "address"
        },
        {
          "indexed": true,
          "internalType": "address",
          "name": "newOwner",
          "type": "address"
        }
      ],
      "name": "OwnershipTransferred",
      "type": "event"
    },
    {
      "anonymous": false,
      "inputs": [
        {
          "indexed": true,
          "internalType": "address",
          "name": "from",
          "type": "address"
        },
        {
          "indexed": true,
          "internalType": "address",
          "name": "to",
          "type": "address"
        },
        {
          "indexed": true,
          "internalType": "uint256",
          "name": "tokenId",
          "type": "uint256"
        }
      ],
      "name": "Transfer",
      "type": "event"
    },
    {
      "inputs": [
        {
          "internalType": "address",
          "name": "to",
          "type": "address"
        },
        {
          "internalType": "uint256",
          "name": "tokenId",
          "type": "uint256"
        }
      ],
      "name": "approve",
      "outputs": [],
      "stateMutability": "nonpayable",
      "type": "function"
    },
    {
      "inputs": [
        {
          "internalType": "address",
          "name": "owner",
          "type": "address"
        }
      ],
      "name": "balanceOf",
      "outputs": [
        {
          "internalType": "uint256",
          "name": "",
          "type": "uint256"
        }
      ],
      "stateMutability": "view",
      "type": "function"
    },
    {
      "inputs": [
        {
          "internalType": "uint256",
          "name": "tokenId",
          "type": "uint256"
        }
      ],
      "name": "getApproved",
      "outputs": [
        {
          "internalType": "address",
          "name": "",
          "type": "address"
        }
      ],
      "stateMutability": "view",
      "type": "function"
    },
    {
      "inputs": [
        {
          "internalType": "address",
          "name": "owner",
          "type": "address"
        },
        {
          "internalType": "address",
          "name": "operator",
          "type": "address"
        }
      ],
      "name": "isApprovedForAll",
      "outputs": [
        {
          "internalType": "bool",
          "name": "",
          "type": "bool"
        }
      ],
      "stateMutability": "view",
      "type": "function"
    },
    {
      "inputs": [],
      "name": "name",
      "outputs": [
        {
          "internalType": "string",
          "name": "",
          "type": "string"
        }
      ],
      "stateMutability": "view",
      "type": "function"
    },
    {
      "inputs": [],
      "name": "owner",
      "outputs": [
        {
          "internalType": "address",
          "name": "",
          "type": "address"
        }
      ],
      "stateMutability": "view",
      "type": "function"
    },
    {
      "inputs": [
        {
          "internalType": "uint256",
          "name": "tokenId",
          "type": "uint256"
        }
      ],
      "name": "ownerOf",
      "outputs": [
        {
          "internalType": "address",
          "name": "",
          "type": "address"
        }
      ],
      "stateMutability": "view",
      "type": "function"
    },
    {
      "inputs": [],
      "name": "renounceOwnership",
      "outputs": [],
      "stateMutability": "nonpayable",
      "type": "function"
    },
    {
      "inputs": [
        {
          "internalType": "address",
          "name": "to",
          "type": "address"
        }
      ],
      "name": "safeMint",
      "outputs": [],
      "stateMutability": "nonpayable",
      "type": "function"
    },
    {
      "inputs": [
        {
          "internalType": "address",
          "name": "from",
          "type": "address"
        },
        {
          "internalType": "address",
          "name": "to",
          "type": "address"
        },
        {
          "internalType": "uint256",
          "name": "tokenId",
          "type": "uint256"
        }
      ],
      "name": "safeTransferFrom",
      "outputs": [],
      "stateMutability": "nonpayable",
      "type": "function"
    },
    {
      "inputs": [
        {
          "internalType": "address",
          "name": "from",
          "type": "address"
        },
        {
          "internalType": "address",
          "name": "to",
          "type": "address"
        },
        {
          "internalType": "uint256",
          "name": "tokenId",
          "type": "uint256"
        },
        {
          "internalType": "bytes",
          "name": "_data",
          "type": "bytes"
        }
      ],
      "name": "safeTransferFrom",
      "outputs": [],
      "stateMutability": "nonpayable",
      "type": "function"
    },
    {
      "inputs": [
        {
          "internalType": "address",
          "name": "operator",
          "type": "address"
        },
        {
          "internalType": "bool",
          "name": "approved",
          "type": "bool"
        }
      ],
      "name": "setApprovalForAll",
      "outputs": [],
      "stateMutability": "nonpayable",
      "type": "function"
    },
    {
      "inputs": [
        {
          "internalType": "bytes4",
          "name": "interfaceId",
          "type": "bytes4"
        }
      ],
      "name": "supportsInterface",
      "outputs": [
        {
          "internalType": "bool",
          "name": "",
          "type": "bool"
        }
      ],
      "stateMutability": "view",
      "type": "function"
    },
    {
      "inputs": [],
      "name": "symbol",
      "outputs": [
        {
          "internalType": "string",
          "name": "",
          "type": "string"
        }
      ],
      "stateMutability": "view",
      "type": "function"
    },
    {
      "inputs": [
        {
          "internalType": "uint256",
          "name": "index",
          "type": "uint256"
        }
      ],
      "name": "tokenByIndex",
      "outputs": [
        {
          "internalType": "uint256",
          "name": "",
          "type": "uint256"
        }
      ],
      "stateMutability": "view",
      "type": "function"
    },
    {
      "inputs": [
        {
          "internalType": "address",
          "name": "owner",
          "type": "address"
        },
        {
          "internalType": "uint256",
          "name": "index",
          "type": "uint256"
        }
      ],
      "name": "tokenOfOwnerByIndex",
      "outputs": [
        {
          "internalType": "uint256",
          "name": "",
          "type": "uint256"
        }
      ],
      "stateMutability": "view",
      "type": "function"
    },
    {
      "inputs": [
        {
          "internalType": "uint256",
          "name": "tokenId",
          "type": "uint256"
        }
      ],
      "name": "tokenURI",
      "outputs": [
        {
          "internalType": "string",
          "name": "",
          "type": "string"
        }
      ],
      "stateMutability": "view",
      "type": "function"
    },
    {
      "inputs": [],
      "name": "totalSupply",
      "outputs": [
        {
          "internalType": "uint256",
          "name": "",
          "type": "uint256"
        }
      ],
      "stateMutability": "view",
      "type": "function"
    },
    {
      "inputs": [
        {
          "internalType": "address",
          "name": "from",
          "type": "address"
        },
        {
          "internalType": "address",
          "name": "to",
          "type": "address"
        },
        {
          "internalType": "uint256",
          "name": "tokenId",
          "type": "uint256"
        }
      ],
      "name": "transferFrom",
      "outputs": [],
      "stateMutability": "nonpayable",
      "type": "function"
    },
    {
      "inputs": [
        {
          "internalType": "address",
          "name": "newOwner",
          "type": "address"
        }
      ],
      "name": "transferOwnership",
      "outputs": [],
      "stateMutability": "nonpayable",
      "type": "function"
    }
  ],
  "bytecode": "0x60806040523480156200001157600080fd5b506040518060400160405280600581526020017f4d754e46540000000000000000000000000000000000000000000000000000008152506040518060400160405280600481526020017f4d4e465400000000000000000000000000000000000000000000000000000000815250816000908051906020019062000096929190620001a6565b508060019080519060200190620000af929190620001a6565b505050620000d2620000c6620000d860201b60201c565b620000e060201b60201c565b620002bb565b600033905090565b6000600a60009054906101000a900473ffffffffffffffffffffffffffffffffffffffff16905081600a60006101000a81548173ffffffffffffffffffffffffffffffffffffffff021916908373ffffffffffffffffffffffffffffffffffffffff1602179055508173ffffffffffffffffffffffffffffffffffffffff168173ffffffffffffffffffffffffffffffffffffffff167f8be0079c531659141344cd1fd0a4f28419497f9722a3daafe3b4186f6b6457e060405160405180910390a35050565b828054620001b49062000256565b90600052602060002090601f016020900481019282620001d8576000855562000224565b82601f10620001f357805160ff191683800117855562000224565b8280016001018555821562000224579182015b828111156200022357825182559160200191906001019062000206565b5b50905062000233919062000237565b5090565b5b808211156200025257600081600090555060010162000238565b5090565b600060028204905060018216806200026f57607f821691505b602082108114156200028657620002856200028c565b5b50919050565b7f4e487b7100000000000000000000000000000000000000000000000000000000600052602260045260246000fd5b61333880620002cb6000396000f3fe608060405234801561001057600080fd5b506004361061012c5760003560e01c80636352211e116100ad578063a22cb46511610071578063a22cb46514610343578063b88d4fde1461035f578063c87b56dd1461037b578063e985e9c5146103ab578063f2fde38b146103db5761012c565b80636352211e1461029d57806370a08231146102cd578063715018a6146102fd5780638da5cb5b1461030757806395d89b41146103255761012c565b806323b872dd116100f457806323b872dd146101e95780632f745c591461020557806340d097c31461023557806342842e0e146102515780634f6ccce71461026d5761012c565b806301ffc9a71461013157806306fdde0314610161578063081812fc1461017f578063095ea7b3146101af57806318160ddd146101cb575b600080fd5b61014b6004803603810190610146919061229a565b6103f7565b60405161015891906126f2565b60405180910390f35b610169610409565b604051610176919061270d565b60405180910390f35b610199600480360381019061019491906122f4565b61049b565b6040516101a6919061268b565b60405180910390f35b6101c960048036038101906101c4919061225a565b610520565b005b6101d3610638565b6040516101e0919061296f565b60405180910390f35b61020360048036038101906101fe9190612144565b610645565b005b61021f600480360381019061021a919061225a565b6106a5565b60405161022c919061296f565b60405180910390f35b61024f600480360381019061024a91906120d7565b61074a565b005b61026b60048036038101906102669190612144565b610770565b005b610287600480360381019061028291906122f4565b610790565b604051610294919061296f565b60405180910390f35b6102b760048036038101906102b291906122f4565b610801565b6040516102c4919061268b565b60405180910390f35b6102e760048036038101906102e291906120d7565b6108b3565b6040516102f4919061296f565b60405180910390f35b61030561096b565b005b61030f6109f3565b60405161031c919061268b565b60405180910390f35b61032d610a1d565b60405161033a919061270d565b60405180910390f35b61035d6004803603810190610358919061221a565b610aaf565b005b61037960048036038101906103749190612197565b610ac5565b005b610395600480360381019061039091906122f4565b610b27565b6040516103a2919061270d565b60405180910390f35b6103c560048036038101906103c09190612104565b610bce565b6040516103d291906126f2565b60405180910390f35b6103f560048036038101906103f091906120d7565b610c62565b005b600061040282610d5a565b9050919050565b60606000805461041890612b94565b80601f016020809104026020016040519081016040528092919081815260200182805461044490612b94565b80156104915780601f1061046657610100808354040283529160200191610491565b820191906000526020600020905b81548152906001019060200180831161047457829003601f168201915b5050505050905090565b60006104a682610dd4565b6104e5576040517f08c379a00000000000000000000000000000000000000000000000000000000081526004016104dc906128af565b60405180910390fd5b6004600083815260200190815260200160002060009054906101000a900473ffffffffffffffffffffffffffffffffffffffff169050919050565b600061052b82610801565b90508073ffffffffffffffffffffffffffffffffffffffff168373ffffffffffffffffffffffffffffffffffffffff16141561059c576040517f08c379a00000000000000000000000000000000000000000000000000000000081526004016105939061290f565b60405180910390fd5b8073ffffffffffffffffffffffffffffffffffffffff166105bb610e40565b73ffffffffffffffffffffffffffffffffffffffff1614806105ea57506105e9816105e4610e40565b610bce565b5b610629576040517f08c379a00000000000000000000000000000000000000000000000000000000081526004016106209061282f565b60405180910390fd5b6106338383610e48565b505050565b6000600880549050905090565b610656610650610e40565b82610f01565b610695576040517f08c379a000000000000000000000000000000000000000000000000000000000815260040161068c9061292f565b60405180910390fd5b6106a0838383610fdf565b505050565b60006106b0836108b3565b82106106f1576040517f08c379a00000000000000000000000000000000000000000000000000000000081526004016106e89061272f565b60405180910390fd5b600660008473ffffffffffffffffffffffffffffffffffffffff1673ffffffffffffffffffffffffffffffffffffffff168152602001908152602001600020600083815260200190815260200160002054905092915050565b6000610756600b611246565b9050610762600b611254565b61076c828261126a565b5050565b61078b83838360405180602001604052806000815250610ac5565b505050565b600061079a610638565b82106107db576040517f08c379a00000000000000000000000000000000000000000000000000000000081526004016107d29061294f565b60405180910390fd5b600882815481106107ef576107ee612d2d565b5b90600052602060002001549050919050565b6000806002600084815260200190815260200160002060009054906101000a900473ffffffffffffffffffffffffffffffffffffffff169050600073ffffffffffffffffffffffffffffffffffffffff168173ffffffffffffffffffffffffffffffffffffffff1614156108aa576040517f08c379a00000000000000000000000000000000000000000000000000000000081526004016108a19061286f565b60405180910390fd5b80915050919050565b60008073ffffffffffffffffffffffffffffffffffffffff168273ffffffffffffffffffffffffffffffffffffffff161415610924576040517f08c379a000000000000000000000000000000000000000000000000000000000815260040161091b9061284f565b60405180910390fd5b600360008373ffffffffffffffffffffffffffffffffffffffff1673ffffffffffffffffffffffffffffffffffffffff168152602001908152602001600020549050919050565b610973610e40565b73ffffffffffffffffffffffffffffffffffffffff166109916109f3565b73ffffffffffffffffffffffffffffffffffffffff16146109e7576040517f08c379a00000000000000000000000000000000000000000000000000000000081526004016109de906128cf565b60405180910390fd5b6109f16000611288565b565b6000600a60009054906101000a900473ffffffffffffffffffffffffffffffffffffffff16905090565b606060018054610a2c90612b94565b80601f0160208091040260200160405190810160405280929190818152602001828054610a5890612b94565b8015610aa55780601f10610a7a57610100808354040283529160200191610aa5565b820191906000526020600020905b815481529060010190602001808311610a8857829003601f168201915b5050505050905090565b610ac1610aba610e40565b838361134e565b5050565b610ad6610ad0610e40565b83610f01565b610b15576040517f08c379a0000000000000000000000000000000000000000000000000000000008152600401610b0c9061292f565b60405180910390fd5b610b21848484846114bb565b50505050565b6060610b3282610dd4565b610b71576040517f08c379a0000000000000000000000000000000000000000000000000000000008152600401610b68906128ef565b60405180910390fd5b6000610b7b611517565b90506000815111610b9b5760405180602001604052806000815250610bc6565b80610ba58461152e565b604051602001610bb6929190612667565b6040516020818303038152906040525b915050919050565b6000600560008473ffffffffffffffffffffffffffffffffffffffff1673ffffffffffffffffffffffffffffffffffffffff16815260200190815260200160002060008373ffffffffffffffffffffffffffffffffffffffff1673ffffffffffffffffffffffffffffffffffffffff16815260200190815260200160002060009054906101000a900460ff16905092915050565b610c6a610e40565b73ffffffffffffffffffffffffffffffffffffffff16610c886109f3565b73ffffffffffffffffffffffffffffffffffffffff1614610cde576040517f08c379a0000000000000000000000000000000000000000000000000000000008152600401610cd5906128cf565b60405180910390fd5b600073ffffffffffffffffffffffffffffffffffffffff168173ffffffffffffffffffffffffffffffffffffffff161415610d4e576040517f08c379a0000000000000000000000000000000000000000000000000000000008152600401610d459061276f565b60405180910390fd5b610d5781611288565b50565b60007f780e9d63000000000000000000000000000000000000000000000000000000007bffffffffffffffffffffffffffffffffffffffffffffffffffffffff1916827bffffffffffffffffffffffffffffffffffffffffffffffffffffffff19161480610dcd5750610dcc8261168f565b5b9050919050565b60008073ffffffffffffffffffffffffffffffffffffffff166002600084815260200190815260200160002060009054906101000a900473ffffffffffffffffffffffffffffffffffffffff1673ffffffffffffffffffffffffffffffffffffffff1614159050919050565b600033905090565b816004600083815260200190815260200160002060006101000a81548173ffffffffffffffffffffffffffffffffffffffff021916908373ffffffffffffffffffffffffffffffffffffffff160217905550808273ffffffffffffffffffffffffffffffffffffffff16610ebb83610801565b73ffffffffffffffffffffffffffffffffffffffff167f8c5be1e5ebec7d5bd14f71427d1e84f3dd0314c0f7b2291e5b200ac8c7c3b92560405160405180910390a45050565b6000610f0c82610dd4565b610f4b576040517f08c379a0000000000000000000000000000000000000000000000000000000008152600401610f429061280f565b60405180910390fd5b6000610f5683610801565b90508073ffffffffffffffffffffffffffffffffffffffff168473ffffffffffffffffffffffffffffffffffffffff161480610f985750610f978185610bce565b5b80610fd657508373ffffffffffffffffffffffffffffffffffffffff16610fbe8461049b565b73ffffffffffffffffffffffffffffffffffffffff16145b91505092915050565b8273ffffffffffffffffffffffffffffffffffffffff16610fff82610801565b73ffffffffffffffffffffffffffffffffffffffff1614611055576040517f08c379a000000000000000000000000000000000000000000000000000000000815260040161104c9061278f565b60405180910390fd5b600073ffffffffffffffffffffffffffffffffffffffff168273ffffffffffffffffffffffffffffffffffffffff1614156110c5576040517f08c379a00000000000000000000000000000000000000000000000000000000081526004016110bc906127cf565b60405180910390fd5b6110d0838383611771565b6110db600082610e48565b6001600360008573ffffffffffffffffffffffffffffffffffffffff1673ffffffffffffffffffffffffffffffffffffffff168152602001908152602001600020600082825461112b9190612aaa565b925050819055506001600360008473ffffffffffffffffffffffffffffffffffffffff1673ffffffffffffffffffffffffffffffffffffffff16815260200190815260200160002060008282546111829190612a23565b92505081905550816002600083815260200190815260200160002060006101000a81548173ffffffffffffffffffffffffffffffffffffffff021916908373ffffffffffffffffffffffffffffffffffffffff160217905550808273ffffffffffffffffffffffffffffffffffffffff168473ffffffffffffffffffffffffffffffffffffffff167fddf252ad1be2c89b69c2b068fc378daa952ba7f163c4a11628f55a4df523b3ef60405160405180910390a4611241838383611781565b505050565b600081600001549050919050565b6001816000016000828254019250508190555050565b611284828260405180602001604052806000815250611786565b5050565b6000600a60009054906101000a900473ffffffffffffffffffffffffffffffffffffffff16905081600a60006101000a81548173ffffffffffffffffffffffffffffffffffffffff021916908373ffffffffffffffffffffffffffffffffffffffff1602179055508173ffffffffffffffffffffffffffffffffffffffff168173ffffffffffffffffffffffffffffffffffffffff167f8be0079c531659141344cd1fd0a4f28419497f9722a3daafe3b4186f6b6457e060405160405180910390a35050565b8173ffffffffffffffffffffffffffffffffffffffff168373ffffffffffffffffffffffffffffffffffffffff1614156113bd576040517f08c379a00000000000000000000000000000000000000000000000000000000081526004016113b4906127ef565b60405180910390fd5b80600560008573ffffffffffffffffffffffffffffffffffffffff1673ffffffffffffffffffffffffffffffffffffffff16815260200190815260200160002060008473ffffffffffffffffffffffffffffffffffffffff1673ffffffffffffffffffffffffffffffffffffffff16815260200190815260200160002060006101000a81548160ff0219169083151502179055508173ffffffffffffffffffffffffffffffffffffffff168373ffffffffffffffffffffffffffffffffffffffff167f17307eab39ab6107e8899845ad3d59bd9653f200f220920489ca2b5937696c31836040516114ae91906126f2565b60405180910390a3505050565b6114c6848484610fdf565b6114d2848484846117e1565b611511576040517f08c379a00000000000000000000000000000000000000000000000000000000081526004016115089061274f565b60405180910390fd5b50505050565b606060405180602001604052806000815250905090565b60606000821415611576576040518060400160405280600181526020017f3000000000000000000000000000000000000000000000000000000000000000815250905061168a565b600082905060005b600082146115a857808061159190612bf7565b915050600a826115a19190612a79565b915061157e565b60008167ffffffffffffffff8111156115c4576115c3612d5c565b5b6040519080825280601f01601f1916602001820160405280156115f65781602001600182028036833780820191505090505b5090505b600085146116835760018261160f9190612aaa565b9150600a8561161e9190612c40565b603061162a9190612a23565b60f81b8183815181106116405761163f612d2d565b5b60200101907effffffffffffffffffffffffffffffffffffffffffffffffffffffffffffff1916908160001a905350600a8561167c9190612a79565b94506115fa565b8093505050505b919050565b60007f80ac58cd000000000000000000000000000000000000000000000000000000007bffffffffffffffffffffffffffffffffffffffffffffffffffffffff1916827bffffffffffffffffffffffffffffffffffffffffffffffffffffffff1916148061175a57507f5b5e139f000000000000000000000000000000000000000000000000000000007bffffffffffffffffffffffffffffffffffffffffffffffffffffffff1916827bffffffffffffffffffffffffffffffffffffffffffffffffffffffff1916145b8061176a575061176982611978565b5b9050919050565b61177c8383836119e2565b505050565b505050565b6117908383611af6565b61179d60008484846117e1565b6117dc576040517f08c379a00000000000000000000000000000000000000000000000000000000081526004016117d39061274f565b60405180910390fd5b505050565b60006118028473ffffffffffffffffffffffffffffffffffffffff16611cd0565b1561196b578373ffffffffffffffffffffffffffffffffffffffff1663150b7a0261182b610e40565b8786866040518563ffffffff1660e01b815260040161184d94939291906126a6565b602060405180830381600087803b15801561186757600080fd5b505af192505050801561189857506040513d601f19601f8201168201806040525081019061189591906122c7565b60015b61191b573d80600081146118c8576040519150601f19603f3d011682016040523d82523d6000602084013e6118cd565b606091505b50600081511415611913576040517f08c379a000000000000000000000000000000000000000000000000000000000815260040161190a9061274f565b60405180910390fd5b805181602001fd5b63150b7a0260e01b7bffffffffffffffffffffffffffffffffffffffffffffffffffffffff1916817bffffffffffffffffffffffffffffffffffffffffffffffffffffffff191614915050611970565b600190505b949350505050565b60007f01ffc9a7000000000000000000000000000000000000000000000000000000007bffffffffffffffffffffffffffffffffffffffffffffffffffffffff1916827bffffffffffffffffffffffffffffffffffffffffffffffffffffffff1916149050919050565b6119ed838383611cf3565b600073ffffffffffffffffffffffffffffffffffffffff168373ffffffffffffffffffffffffffffffffffffffff161415611a3057611a2b81611cf8565b611a6f565b8173ffffffffffffffffffffffffffffffffffffffff168373ffffffffffffffffffffffffffffffffffffffff1614611a6e57611a6d8382611d41565b5b5b600073ffffffffffffffffffffffffffffffffffffffff168273ffffffffffffffffffffffffffffffffffffffff161415611ab257611aad81611eae565b611af1565b8273ffffffffffffffffffffffffffffffffffffffff168273ffffffffffffffffffffffffffffffffffffffff1614611af057611aef8282611f7f565b5b5b505050565b600073ffffffffffffffffffffffffffffffffffffffff168273ffffffffffffffffffffffffffffffffffffffff161415611b66576040517f08c379a0000000000000000000000000000000000000000000000000000000008152600401611b5d9061288f565b60405180910390fd5b611b6f81610dd4565b15611baf576040517f08c379a0000000000000000000000000000000000000000000000000000000008152600401611ba6906127af565b60405180910390fd5b611bbb60008383611771565b6001600360008473ffffffffffffffffffffffffffffffffffffffff1673ffffffffffffffffffffffffffffffffffffffff1681526020019081526020016000206000828254611c0b9190612a23565b92505081905550816002600083815260200190815260200160002060006101000a81548173ffffffffffffffffffffffffffffffffffffffff021916908373ffffffffffffffffffffffffffffffffffffffff160217905550808273ffffffffffffffffffffffffffffffffffffffff16600073ffffffffffffffffffffffffffffffffffffffff167fddf252ad1be2c89b69c2b068fc378daa952ba7f163c4a11628f55a4df523b3ef60405160405180910390a4611ccc60008383611781565b5050565b6000808273ffffffffffffffffffffffffffffffffffffffff163b119050919050565b505050565b6008805490506009600083815260200190815260200160002081905550600881908060018154018082558091505060019003906000526020600020016000909190919091505550565b60006001611d4e846108b3565b611d589190612aaa565b9050600060076000848152602001908152602001600020549050818114611e3d576000600660008673ffffffffffffffffffffffffffffffffffffffff1673ffffffffffffffffffffffffffffffffffffffff168152602001908152602001600020600084815260200190815260200160002054905080600660008773ffffffffffffffffffffffffffffffffffffffff1673ffffffffffffffffffffffffffffffffffffffff168152602001908152602001600020600084815260200190815260200160002081905550816007600083815260200190815260200160002081905550505b6007600084815260200190815260200160002060009055600660008573ffffffffffffffffffffffffffffffffffffffff1673ffffffffffffffffffffffffffffffffffffffff16815260200190815260200160002060008381526020019081526020016000206000905550505050565b60006001600880549050611ec29190612aaa565b9050600060096000848152602001908152602001600020549050600060088381548110611ef257611ef1612d2d565b5b906000526020600020015490508060088381548110611f1457611f13612d2d565b5b906000526020600020018190555081600960008381526020019081526020016000208190555060096000858152602001908152602001600020600090556008805480611f6357611f62612cfe565b5b6001900381819060005260206000200160009055905550505050565b6000611f8a836108b3565b905081600660008573ffffffffffffffffffffffffffffffffffffffff1673ffffffffffffffffffffffffffffffffffffffff168152602001908152602001600020600083815260200190815260200160002081905550806007600084815260200190815260200160002081905550505050565b600061201161200c846129af565b61298a565b90508281526020810184848401111561202d5761202c612d90565b5b612038848285612b52565b509392505050565b60008135905061204f816132a6565b92915050565b600081359050612064816132bd565b92915050565b600081359050612079816132d4565b92915050565b60008151905061208e816132d4565b92915050565b600082601f8301126120a9576120a8612d8b565b5b81356120b9848260208601611ffe565b91505092915050565b6000813590506120d1816132eb565b92915050565b6000602082840312156120ed576120ec612d9a565b5b60006120fb84828501612040565b91505092915050565b6000806040838503121561211b5761211a612d9a565b5b600061212985828601612040565b925050602061213a85828601612040565b9150509250929050565b60008060006060848603121561215d5761215c612d9a565b5b600061216b86828701612040565b935050602061217c86828701612040565b925050604061218d868287016120c2565b9150509250925092565b600080600080608085870312156121b1576121b0612d9a565b5b60006121bf87828801612040565b94505060206121d087828801612040565b93505060406121e1878288016120c2565b925050606085013567ffffffffffffffff81111561220257612201612d95565b5b61220e87828801612094565b91505092959194509250565b6000806040838503121561223157612230612d9a565b5b600061223f85828601612040565b925050602061225085828601612055565b9150509250929050565b6000806040838503121561227157612270612d9a565b5b600061227f85828601612040565b9250506020612290858286016120c2565b9150509250929050565b6000602082840312156122b0576122af612d9a565b5b60006122be8482850161206a565b91505092915050565b6000602082840312156122dd576122dc612d9a565b5b60006122eb8482850161207f565b91505092915050565b60006020828403121561230a57612309612d9a565b5b6000612318848285016120c2565b91505092915050565b61232a81612ade565b82525050565b61233981612af0565b82525050565b600061234a826129e0565b61235481856129f6565b9350612364818560208601612b61565b61236d81612d9f565b840191505092915050565b6000612383826129eb565b61238d8185612a07565b935061239d818560208601612b61565b6123a681612d9f565b840191505092915050565b60006123bc826129eb565b6123c68185612a18565b93506123d6818560208601612b61565b80840191505092915050565b60006123ef602b83612a07565b91506123fa82612db0565b604082019050919050565b6000612412603283612a07565b915061241d82612dff565b604082019050919050565b6000612435602683612a07565b915061244082612e4e565b604082019050919050565b6000612458602583612a07565b915061246382612e9d565b604082019050919050565b600061247b601c83612a07565b915061248682612eec565b602082019050919050565b600061249e602483612a07565b91506124a982612f15565b604082019050919050565b60006124c1601983612a07565b91506124cc82612f64565b602082019050919050565b60006124e4602c83612a07565b91506124ef82612f8d565b604082019050919050565b6000612507603883612a07565b915061251282612fdc565b604082019050919050565b600061252a602a83612a07565b91506125358261302b565b604082019050919050565b600061254d602983612a07565b91506125588261307a565b604082019050919050565b6000612570602083612a07565b915061257b826130c9565b602082019050919050565b6000612593602c83612a07565b915061259e826130f2565b604082019050919050565b60006125b6602083612a07565b91506125c182613141565b602082019050919050565b60006125d9602f83612a07565b91506125e48261316a565b604082019050919050565b60006125fc602183612a07565b9150612607826131b9565b604082019050919050565b600061261f603183612a07565b915061262a82613208565b604082019050919050565b6000612642602c83612a07565b915061264d82613257565b604082019050919050565b61266181612b48565b82525050565b600061267382856123b1565b915061267f82846123b1565b91508190509392505050565b60006020820190506126a06000830184612321565b92915050565b60006080820190506126bb6000830187612321565b6126c86020830186612321565b6126d56040830185612658565b81810360608301526126e7818461233f565b905095945050505050565b60006020820190506127076000830184612330565b92915050565b600060208201905081810360008301526127278184612378565b905092915050565b60006020820190508181036000830152612748816123e2565b9050919050565b6000602082019050818103600083015261276881612405565b9050919050565b6000602082019050818103600083015261278881612428565b9050919050565b600060208201905081810360008301526127a88161244b565b9050919050565b600060208201905081810360008301526127c88161246e565b9050919050565b600060208201905081810360008301526127e881612491565b9050919050565b60006020820190508181036000830152612808816124b4565b9050919050565b60006020820190508181036000830152612828816124d7565b9050919050565b60006020820190508181036000830152612848816124fa565b9050919050565b600060208201905081810360008301526128688161251d565b9050919050565b6000602082019050818103600083015261288881612540565b9050919050565b600060208201905081810360008301526128a881612563565b9050919050565b600060208201905081810360008301526128c881612586565b9050919050565b600060208201905081810360008301526128e8816125a9565b9050919050565b60006020820190508181036000830152612908816125cc565b9050919050565b60006020820190508181036000830152612928816125ef565b9050919050565b6000602082019050818103600083015261294881612612565b9050919050565b6000602082019050818103600083015261296881612635565b9050919050565b60006020820190506129846000830184612658565b92915050565b60006129946129a5565b90506129a08282612bc6565b919050565b6000604051905090565b600067ffffffffffffffff8211156129ca576129c9612d5c565b5b6129d382612d9f565b9050602081019050919050565b600081519050919050565b600081519050919050565b600082825260208201905092915050565b600082825260208201905092915050565b600081905092915050565b6000612a2e82612b48565b9150612a3983612b48565b9250827fffffffffffffffffffffffffffffffffffffffffffffffffffffffffffffffff03821115612a6e57612a6d612c71565b5b828201905092915050565b6000612a8482612b48565b9150612a8f83612b48565b925082612a9f57612a9e612ca0565b5b828204905092915050565b6000612ab582612b48565b9150612ac083612b48565b925082821015612ad357612ad2612c71565b5b828203905092915050565b6000612ae982612b28565b9050919050565b60008115159050919050565b60007fffffffff0000000000000000000000000000000000000000000000000000000082169050919050565b600073ffffffffffffffffffffffffffffffffffffffff82169050919050565b6000819050919050565b82818337600083830152505050565b60005b83811015612b7f578082015181840152602081019050612b64565b83811115612b8e576000848401525b50505050565b60006002820490506001821680612bac57607f821691505b60208210811415612bc057612bbf612ccf565b5b50919050565b612bcf82612d9f565b810181811067ffffffffffffffff82111715612bee57612bed612d5c565b5b80604052505050565b6000612c0282612b48565b91507fffffffffffffffffffffffffffffffffffffffffffffffffffffffffffffffff821415612c3557612c34612c71565b5b600182019050919050565b6000612c4b82612b48565b9150612c5683612b48565b925082612c6657612c65612ca0565b5b828206905092915050565b7f4e487b7100000000000000000000000000000000000000000000000000000000600052601160045260246000fd5b7f4e487b7100000000000000000000000000000000000000000000000000000000600052601260045260246000fd5b7f4e487b7100000000000000000000000000000000000000000000000000000000600052602260045260246000fd5b7f4e487b7100000000000000000000000000000000000000000000000000000000600052603160045260246000fd5b7f4e487b7100000000000000000000000000000000000000000000000000000000600052603260045260246000fd5b7f4e487b7100000000000000000000000000000000000000000000000000000000600052604160045260246000fd5b600080fd5b600080fd5b600080fd5b600080fd5b6000601f19601f8301169050919050565b7f455243373231456e756d657261626c653a206f776e657220696e646578206f7560008201527f74206f6620626f756e6473000000000000000000000000000000000000000000602082015250565b7f4552433732313a207472616e7366657220746f206e6f6e20455243373231526560008201527f63656976657220696d706c656d656e7465720000000000000000000000000000602082015250565b7f4f776e61626c653a206e6577206f776e657220697320746865207a65726f206160008201527f6464726573730000000000000000000000000000000000000000000000000000602082015250565b7f4552433732313a207472616e736665722066726f6d20696e636f72726563742060008201527f6f776e6572000000000000000000000000000000000000000000000000000000602082015250565b7f4552433732313a20746f6b656e20616c7265616479206d696e74656400000000600082015250565b7f4552433732313a207472616e7366657220746f20746865207a65726f2061646460008201527f7265737300000000000000000000000000000000000000000000000000000000602082015250565b7f4552433732313a20617070726f766520746f2063616c6c657200000000000000600082015250565b7f4552433732313a206f70657261746f7220717565727920666f72206e6f6e657860008201527f697374656e7420746f6b656e0000000000000000000000000000000000000000602082015250565b7f4552433732313a20617070726f76652063616c6c6572206973206e6f74206f7760008201527f6e6572206e6f7220617070726f76656420666f7220616c6c0000000000000000602082015250565b7f4552433732313a2062616c616e636520717565727920666f7220746865207a6560008201527f726f206164647265737300000000000000000000000000000000000000000000602082015250565b7f4552433732313a206f776e657220717565727920666f72206e6f6e657869737460008201527f656e7420746f6b656e0000000000000000000000000000000000000000000000602082015250565b7f4552433732313a206d696e7420746f20746865207a65726f2061646472657373600082015250565b7f4552433732313a20617070726f76656420717565727920666f72206e6f6e657860008201527f697374656e7420746f6b656e0000000000000000000000000000000000000000602082015250565b7f4f776e61626c653a2063616c6c6572206973206e6f7420746865206f776e6572600082015250565b7f4552433732314d657461646174613a2055524920717565727920666f72206e6f60008201527f6e6578697374656e7420746f6b656e0000000000000000000000000000000000602082015250565b7f4552433732313a20617070726f76616c20746f2063757272656e74206f776e6560008201527f7200000000000000000000000000000000000000000000000000000000000000602082015250565b7f4552433732313a207472616e736665722063616c6c6572206973206e6f74206f60008201527f776e6572206e6f7220617070726f766564000000000000000000000000000000602082015250565b7f455243373231456e756d657261626c653a20676c6f62616c20696e646578206f60008201527f7574206f6620626f756e64730000000000000000000000000000000000000000602082015250565b6132af81612ade565b81146132ba57600080fd5b50565b6132c681612af0565b81146132d157600080fd5b50565b6132dd81612afc565b81146132e857600080fd5b50565b6132f481612b48565b81146132ff57600080fd5b5056fea26469706673582212205c748067506e73712c29213ca4e2c5675905818b8fef5dc0453e9b7c6c91929464736f6c63430008070033",
  "linkReferences": {},
  "deployedLinkReferences": {}
}